{
  "contractName": "GiftCardsPool",
  "abi": [
    {
      "inputs": [],
      "stateMutability": "nonpayable",
      "type": "constructor"
    },
    {
      "anonymous": false,
      "inputs": [
        {
          "indexed": false,
          "internalType": "uint256",
          "name": "amount",
          "type": "uint256"
        },
        {
          "indexed": false,
          "internalType": "uint256",
          "name": "cardId",
          "type": "uint256"
        }
      ],
      "name": "LogNewGiftCard",
      "type": "event"
    },
    {
      "anonymous": false,
      "inputs": [
        {
          "indexed": false,
          "internalType": "address",
          "name": "accountAddress",
          "type": "address"
        },
        {
          "indexed": false,
          "internalType": "uint256",
          "name": "cardId",
          "type": "uint256"
        },
        {
          "indexed": false,
          "internalType": "uint256",
          "name": "amount",
          "type": "uint256"
        }
      ],
      "name": "LogRedeemed",
      "type": "event"
    },
    {
      "stateMutability": "payable",
      "type": "fallback"
    },
    {
      "inputs": [],
      "name": "owner",
      "outputs": [
        {
          "internalType": "address",
          "name": "",
          "type": "address"
        }
      ],
      "stateMutability": "view",
      "type": "function"
    },
    {
      "inputs": [
        {
          "internalType": "uint256",
          "name": "cardId",
          "type": "uint256"
        }
      ],
      "name": "getGiftCardBalance",
      "outputs": [
        {
          "internalType": "uint256",
          "name": "",
          "type": "uint256"
        }
      ],
      "stateMutability": "view",
      "type": "function"
    },
    {
      "inputs": [],
      "name": "getPoolTotal",
      "outputs": [
        {
          "internalType": "uint256",
          "name": "",
          "type": "uint256"
        }
      ],
      "stateMutability": "view",
      "type": "function"
    },
    {
      "inputs": [
        {
          "internalType": "uint256",
          "name": "amount",
          "type": "uint256"
        }
      ],
      "name": "newGiftCard",
      "outputs": [
        {
          "internalType": "uint256",
          "name": "",
          "type": "uint256"
        }
      ],
      "stateMutability": "payable",
      "type": "function"
    },
    {
      "inputs": [
        {
          "internalType": "uint256",
          "name": "cardId",
          "type": "uint256"
        }
      ],
      "name": "redeem",
      "outputs": [
        {
          "internalType": "uint256",
          "name": "",
          "type": "uint256"
        }
      ],
      "stateMutability": "nonpayable",
      "type": "function"
    }
  ],
  "bytecode": "0x608060405234801561001057600080fd5b5033600160006101000a81548173ffffffffffffffffffffffffffffffffffffffff021916908373ffffffffffffffffffffffffffffffffffffffff160217905550610431806100616000396000f3fe60806040526004361061004e5760003560e01c8063114e414c14610054578063202ea124146100965780638da5cb5b146100e55780638ed1fff514610126578063db006a75146101515761004f565b5b600080fd5b6100806004803603602081101561006a57600080fd5b81019080803590602001909291905050506101a0565b6040518082815260200191505060405180910390f35b3480156100a257600080fd5b506100cf600480360360208110156100b957600080fd5b810190808035906020019092919050505061022b565b6040518082815260200191505060405180910390f35b3480156100f157600080fd5b506100fa610247565b604051808273ffffffffffffffffffffffffffffffffffffffff16815260200191505060405180910390f35b34801561013257600080fd5b5061013b61026d565b6040518082815260200191505060405180910390f35b34801561015d57600080fd5b5061018a6004803603602081101561017457600080fd5b8101908080359060200190929190505050610277565b6040518082815260200191505060405180910390f35b60006001600360008282540192505081905550816000806003548152602001908152602001600020600082825401925050819055507f0ddff0454ad5cbc021ec20eac2eb7c07aad110156ddd2beba432d7ea3c9d137f82600354604051808381526020018281526020019250505060405180910390a181600254016002819055506003549050919050565b6000806000838152602001908152602001600020549050919050565b600160009054906101000a900473ffffffffffffffffffffffffffffffffffffffff1681565b6000600254905090565b6000816002546000808381526020019081526020016000205411156102e7576040517f08c379a00000000000000000000000000000000000000000000000000000000081526004018080602001828103825260248152602001806103d86024913960400191505060405180910390fd5b600080600085815260200190815260200160002054905080600080868152602001908152602001600020600082825403925050819055503373ffffffffffffffffffffffffffffffffffffffff166108fc829081150290604051600060405180830381858888f19350505050158015610364573d6000803e3d6000fd5b5080600254036002819055507f3e77e1ddcfb5fbf512da3cd9f2900e8143660354a3ceb9ba62cbb958e1d4a9f1338583604051808473ffffffffffffffffffffffffffffffffffffffff168152602001838152602001828152602001935050505060405180910390a1809250505091905056fe4e6f7420656e6f756768206f6e206163636f756e7420666f72207769746864726177616ca26469706673582212204d96625c90f7ed00d95142e4210faa457127f92bf5337513398701d015bd826164736f6c634300060c0033",
  "immutableReferences": {},
  "source": "pragma solidity ^0.6.12;\r\n\r\ninterface interfaceGiftCardsPool {\r\n  function getGiftCardBalance(uint cardId) external view returns (uint);\r\n  function getPoolTotal() external view returns (uint);\r\n  function newGiftCard(uint amount) external payable returns (uint);\r\n  function redeem(uint cardId) external returns (uint);\r\n}\r\n\r\n/// @title Sold Gift Cards Pool\r\n/// @author Carlos Sandi\r\n/// @notice This contract will be used for storing and redeem purchased Eth Gift Cards.\r\ncontract GiftCardsPool {\r\n\r\n    //\r\n    // State variables\r\n    //\r\n\r\n    /* Keep balance for each gift card sold */\r\n    mapping (uint => uint) private giftCards;\r\n\r\n    /* Contract owner */\r\n    address public owner;\r\n\r\n    /* Total amount deposited */\r\n    uint private poolTotalAmount;\r\n\r\n    /* Variable used to create non repeated gift cards id */\r\n    uint private _currentCardId;\r\n\r\n    //\r\n    // Events - publicize actions to external listeners\r\n    //\r\n\r\n    /* Show info about redeemed ETH Gift Card */\r\n    event LogRedeemed(address accountAddress, uint cardId, uint amount);\r\n\r\n    /* Show info about new ETH Gift Card Created */\r\n    event LogNewGiftCard(uint amount, uint cardId);\r\n\r\n    modifier enoughForRedeem(uint _cardId) {\r\n        require (\r\n            giftCards[_cardId] <= poolTotalAmount,\r\n            \"Not enough on account for withdrawal\"\r\n        );\r\n        _;\r\n    }\r\n\r\n    //\r\n    // Functions\r\n    //\r\n\r\n    constructor() public {\r\n        /* Set the owner to the creator of this contract */\r\n        owner = msg.sender;\r\n    }\r\n\r\n    // Fallback function - Called if other functions don't match call or\r\n    // sent ether without data\r\n    // Typically, called when invalid data is sent\r\n    // Added so ether sent to this contract is reverted if the contract fails\r\n    // // otherwise, the sender's money is transferred to contract\r\n    fallback() external payable {\r\n         revert();\r\n    }\r\n\r\n    /// @notice Get balance for a gift card\r\n    /// @return The balance for a gift card\r\n    function getGiftCardBalance(uint cardId) public view returns (uint) {\r\n        /* Get the balance of the gift card id */\r\n        return giftCards[cardId];\r\n    }\r\n\r\n    /// @notice Get pool total deposited amount\r\n    /// @return The total eth deposited in the lending pool.\r\n    function getPoolTotal() public view returns (uint) {\r\n        /* Get the balance of the sender of this transaction */\r\n        return poolTotalAmount;\r\n    }\r\n\r\n    /// @notice When a new ETH Gift Card is created, ether is transfered into Gift Card Pool so it's available when user wants to redeem it.\r\n    /// @return id of the newly created ETH Gift Card created.\r\n    function newGiftCard(uint amount) public payable returns (uint) {\r\n        _currentCardId += 1;\r\n        giftCards[_currentCardId] += amount;\r\n        emit LogNewGiftCard(amount, _currentCardId);\r\n        poolTotalAmount = poolTotalAmount + amount;\r\n        return _currentCardId;\r\n\r\n    }\r\n\r\n    /// @notice Withdraw deposited ether from ETH Gift Card Contract based on the amount of ETH specified for the ETH Gift Card that is been redeemed.\r\n    /// @return The amount of ETH that was transfered.\r\n    // Emit the appropriate event\r\n    function redeem(uint cardId)\r\n        public\r\n        enoughForRedeem(cardId)\r\n        returns (uint) {\r\n          uint withdrawAmount = giftCards[cardId];\r\n          giftCards[cardId] -= withdrawAmount;\r\n          msg.sender.transfer(withdrawAmount);\r\n          poolTotalAmount = poolTotalAmount - withdrawAmount;\r\n          emit LogRedeemed(msg.sender, cardId, withdrawAmount);\r\n          return withdrawAmount;\r\n    }\r\n}\r\n",
  "sourcePath": "F:\\Sources\\Blockchain Developer Bootcamp 2020\\Final Project\\contracts\\GiftCardsPool.sol",
  "compiler": {
    "name": "solc",
    "version": "0.6.12+commit.27d51765.Emscripten.clang"
  },
  "schemaVersion": "3.3.2",
  "updatedAt": "2020-12-27T12:37:59.070Z",
  "devdoc": {
    "author": "Carlos Sandi",
    "kind": "dev",
    "methods": {
      "getGiftCardBalance(uint256)": {
        "returns": {
          "_0": "The balance for a gift card"
        }
      },
      "getPoolTotal()": {
        "returns": {
          "_0": "The total eth deposited in the lending pool."
        }
      },
      "newGiftCard(uint256)": {
        "returns": {
          "_0": "id of the newly created ETH Gift Card created."
        }
      },
      "redeem(uint256)": {
        "returns": {
          "_0": "The amount of ETH that was transfered."
        }
      }
    },
    "title": "Sold Gift Cards Pool",
    "version": 1
  },
  "userdoc": {
    "kind": "user",
    "methods": {
      "getGiftCardBalance(uint256)": {
        "notice": "Get balance for a gift card"
      },
      "getPoolTotal()": {
        "notice": "Get pool total deposited amount"
      },
      "newGiftCard(uint256)": {
        "notice": "When a new ETH Gift Card is created, ether is transfered into Gift Card Pool so it's available when user wants to redeem it."
      },
      "redeem(uint256)": {
        "notice": "Withdraw deposited ether from ETH Gift Card Contract based on the amount of ETH specified for the ETH Gift Card that is been redeemed."
      }
    },
    "notice": "This contract will be used for storing and redeem purchased Eth Gift Cards.",
    "version": 1
  }
}